:100000000C942A000C9447000C9447000C94470071
:100010000C9447000C9447000C944B090C94F9087D
:100020000C9422090C94D0080C940B080C94E20751
:100030000C9447000C9447000C9447000C94470024
:100040000C9447000C9447000C9447000C94470014
:100050000C94470011241FBECFE5D8E0DEBFCDBF12
:1000600011E0A0E6B0E0E8E4F1E202C005900D92F4
:10007000A838B107D9F711E0A8E8B1E001C01D9296
:10008000A53AB107E1F70E94A80F0C94A2100C94B6
:100090000000EF92FF920F931F937B018C0120E0F1
:1000A00030E040E05FE40E94C50388238CF0C80183
:1000B000B70120E030E040E05FE40E94C1010E940F
:1000C000F5039B01AC01205030404040504806C031
:1000D000C801B7010E94F5039B01AC01B901CA0137
:1000E0001F910F91FF90EF900895A0E0B0E0EBE733
:1000F000F0E00C946B10DC012B01FA019C91923022
:1001000008F439C1EB018881823008F433C194309E
:1001100069F4843009F02FC111969C91119789815F
:10012000981709F428C1A0E6B0E025C1843009F48D
:1001300021C18230A9F4923009F01DC19A01AD01AC
:1001400088E0EA010990AE01E90109929E0181501F
:10015000C1F7E201898111969C918923818308C1AD
:10016000923009F407C112962D903C901397EB0141
:100170008A819B811496AD90BD90CD90DC901797AD
:10018000EC80FD800E811F819101281B390BB90184
:1001900037FF04C066277727621B730B6032710537
:1001A0000CF061C0121613066CF537014801062EDB
:1001B00004C096948794779467940A94D2F721E0C8
:1001C00030E040E050E004C0220F331F441F551FB1
:1001D0006A95D2F721503040404050402E213F21B7
:1001E00040235123211531054105510521F021E01E
:1001F00030E040E050E079018A01E628F72808293C
:1002000019293CC0232BD1F1260E371E350146019A
:10021000062E04C096948794779467940A94D2F734
:1002200021E030E040E050E004C0220F331F441FC3
:10023000551F6A95D2F721503040404050402A2146
:100240003B214C215D21211531054105510521F04E
:1002500021E030E040E050E059016A01A628B728CB
:10026000C828D9280BC0821593052CF01C01AA249C
:10027000BB24650103C0EE24FF24870111969C91E5
:10028000D20111968C91981709F445C0992339F041
:10029000A80197012A193B094C095D0906C0A6016E
:1002A00095012E193F09400B510B57FD08C01182D3
:1002B0003382228224833583468357831DC081E0A5
:1002C00081833382228288279927DC01821B930B4A
:1002D000A40BB50B84839583A683B7830DC0220F2F
:1002E000331F441F551F24833583468357838281E0
:1002F000938101979383828324813581468157813D
:10030000DA01C9010197A109B1098F5F9F4FAF4F72
:10031000BF4328F30BC0918333822282EA0CFB1C7B
:100320000C1D1D1DE482F5820683178383E0808304
:10033000248135814681578157FF1AC0C901AA27F8
:1003400097FDA095BA2F81709070A070B0705695EF
:10035000479537952795822B932BA42BB52B848318
:100360009583A683B7838281938101969383828349
:10037000DF0101C0D201CD01CDB7DEB7E2E10C94BF
:100380008710A0E2B0E0E7ECF1E00C94771069830D
:100390007A838B839C832D833E834F835887E9E048
:1003A000EE2EF12CEC0EFD1ECE010196B7010E943F
:1003B000E6058E010F5E1F4FCE010596B8010E9423
:1003C000E6058A8991E089278A8BC701B801AE01C9
:1003D000475E5F4F0E9475000E941105A096E6E0FF
:1003E0000C949310A0E2B0E0E8EFF1E00C947710E9
:1003F00069837A838B839C832D833E834F835887C5
:10040000F9E0EF2EF12CEC0EFD1ECE010196B701A6
:100410000E94E6058E010F5E1F4FCE010596B801C2
:100420000E94E605C701B801AE01475E5F4F0E941A
:1004300075000E941105A096E6E00C949310A0E2CE
:10044000B0E0E5E2F2E00C946B1069837A838B8371
:100450009C832D833E834F835887CE010196BE0136
:10046000675F7F4F0E94E605CE010596BE016F5E75
:100470007F4F0E94E6059985923088F08989823005
:10048000C8F0943019F4823051F404C0843029F457
:10049000923081F480E690E0C6C0923049F420E0CA
:1004A0009A858A89981321E02A87CE010996BBC0D4
:1004B000823049F420E09A858A89981321E02A8BBA
:1004C000CE014196B0C02D843E844F8458886D88FB
:1004D0007E888F88988CEE24FF248701AA24BB2471
:1004E000650140E050E060E070E0E0E0F0E0C10174
:1004F00081709070892BE9F0E60CF71C081D191D1E
:100500009A01AB012A0D3B1D4C1D5D1D80E090E062
:10051000A0E0B0E0E614F7040805190520F481E036
:1005200090E0A0E0B0E0BA01A901480F591F6A1F8E
:100530007B1FAA0CBB1CCC1CDD1C97FE08C081E0F5
:1005400090E0A0E0B0E0A82AB92ACA2ADB2A3196B6
:10055000E032F10549F0660C771C881C991C569412
:10056000479437942794C3CFFA85EA892B893C892D
:100570008B859C85280F391F2E5F3F4F17C0CA01FE
:1005800081709070892B61F016950795F794E79428
:1005900080E090E0A0E0B0E8E82AF92A0A2B1B2BC3
:1005A00076956795579547952F5F3F4F77FDE7CF36
:1005B0000CC0440F551F661F771F17FD4160EE0CDE
:1005C000FF1C001F111F21503040403090E05907A0
:1005D00090E0690790E4790760F32B8F3C8FDB0193
:1005E000CA018F779070A070B07080349105A1051A
:1005F000B10561F447FD0AC0E114F10401051105DC
:1006000029F0405C5F4F6F4F7F4F40781A8EFE1786
:1006100011F081E08A8F4D8F5E8F6F8F78A383E01A
:10062000898FCE0149960E941105A096E2E10C94B3
:100630008710A8E1B0E0EFE1F3E00C947310698358
:100640007A838B839C832D833E834F835887B9E0C5
:10065000EB2EF12CEC0EFD1ECE010196B7010E948F
:10066000E6058E010F5E1F4FCE010596B8010E9470
:10067000E6052985223008F47EC03989323010F42D
:10068000B8017CC08A859A8989278A87243011F02D
:10069000223031F4231709F06EC060E670E06EC0BE
:1006A000343039F41D861E861F86188A1C861B86E8
:1006B00004C0323021F484E08987B7015FC02B8504
:1006C0003C858B899C89281B390B3C872B87ED84C3
:1006D000FE840F851889AD88BE88CF88D88CEA142F
:1006E000FB040C051D0540F4EE0CFF1C001F111F40
:1006F000215030403C872B8720E030E040E050E044
:1007000080E090E0A0E0B0E460E070E0EA14FB0478
:100710000C051D0540F0282B392B4A2B5B2BEA18C2
:10072000FB080C091D09B695A79597958795EE0CC2
:10073000FF1C001F111F6F5F7F4F6F31710531F775
:10074000DA01C9018F779070A070B0708034910584
:10075000A105B10561F427FD0AC0E114F10401050A
:10076000110529F0205C3F4F4F4F5F4F20782D87B8
:100770003E874F87588BBE01675F7F4FCB010E943A
:1007800011056896EAE00C948F10A8E1B0E0EBEC5C
:10079000F3E00C94771069837A838B839C832D8399
:1007A0003E834F83588789E0E82EF12CEC0EFD1E26
:1007B000CE010196B7010E94E6058E010F5E1F4F24
:1007C000CE010596B8010E94E6058985823040F089
:1007D0008989823028F0C701B8010E945E0601C0F5
:1007E0008FEF6896E6E00C949310ACE0B0E0EBEF8E
:1007F000F3E00C947B1069837A838B839C83CE0116
:100800000196BE016B5F7F4F0E94E6058D818230AD
:1008100061F1823050F1843021F48E81882351F1CE
:100820002EC02F81388537FD20C06E812F313105D4
:100830001CF06623F9F023C08EE190E0821B930B3D
:1008400029853A854B855C8504C056954795379533
:1008500027958A95D2F76623B1F05095409530954B
:1008600021953F4F4F4F5F4F0EC020E030E040E0FA
:1008700050E009C02FEF3FEF4FEF5FE704C020E0EB
:1008800030E040E050E8B901CA012C96E2E00C9457
:100890009710A8E0B0E0EFE4F4E00C9473107B0153
:1008A0008C01611571058105910519F482E0898338
:1008B00060C083E089838EE1C82ED12CDC82CB829C
:1008C000ED82FE820F831887C801B7010E94C2041F
:1008D000FC013197F7FF3BC0222733272E1B3F0B2C
:1008E00057016801022E04C0D694C794B794A79408
:1008F0000A94D2F740E050E060E070E081E090E0E0
:10090000A0E0B0E004C0880F991FAA1FBB1F2A9562
:10091000D2F70197A109B1098E219F21A023B1230C
:100920000097A105B10521F041E050E060E070E0E2
:100930004A295B296C297D294D835E836F837887E3
:100940008EE190E08E1B9F0B9C838B8312C03097AF
:1009500081F00E2E04C0EE0CFF1C001F111F0A9424
:10096000D2F7ED82FE820F831887CE1ADF0ADC826F
:10097000CB821A82CE0101960E9411052896EAE0E8
:100980000C948F10EF92FF920F931F937B018C01B9
:1009900080E0E81680E0F80681E0080780E01807AC
:1009A00088F48FEFE816F1040105110531F028F005
:1009B00088E090E0A0E0B0E017C080E090E0A0E028
:1009C000B0E012C080E0E81680E0F80680E008079A
:1009D00081E0180728F088E190E0A0E0B0E004C0D2
:1009E00080E190E0A0E0B0E020E230E040E050E0C4
:1009F000281B390B4A0B5B0B04C016950795F7941F
:100A0000E7948A95D2F7F701E859FF4F8081281BB8
:100A1000310941095109C9011F910F91FF90EF90D0
:100A20000895DF92EF92FF920F931F93FC01E480F1
:100A3000F58006811781D1808081823048F480E082
:100A400090E0A0E1B0E0E82AF92A0A2B1B2BA5C010
:100A5000843009F49FC0823021F4EE24FF24870102
:100A600005C0E114F1040105110519F4E0E0F0E01E
:100A700096C0628173819FEF623879070CF05BC08A
:100A800022E83FEF261B370B2A3131052CF020E0FE
:100A900030E040E050E02AC0B801A701022E04C0B7
:100AA00076956795579547950A94D2F781E090E03F
:100AB000A0E0B0E004C0880F991FAA1FBB1F2A95B1
:100AC000D2F70197A109B1098E219F21A023B1235B
:100AD0000097A105B10521F081E090E0A0E0B0E031
:100AE0009A01AB01282B392B4A2B5B2BDA01C90168
:100AF0008F779070A070B07080349105A105B1051A
:100B000039F427FF09C0205C3F4F4F4F5F4F04C0AF
:100B1000215C3F4F4F4F5F4FE0E0F0E02030A0E01E
:100B20003A07A0E04A07A0E45A0710F0E1E0F0E03D
:100B300079018A0127C06038710564F5FB01E1582D
:100B4000FF4FD801C7018F779070A070B0708034CC
:100B50009105A105B10539F4E7FE0DC080E490E0F0
:100B6000A0E0B0E004C08FE390E0A0E0B0E0E80EC9
:100B7000F91E0A1F1B1F17FF05C016950795F7944E
:100B8000E794319687E016950795F794E7948A9550
:100B9000D1F705C0EE24FF248701EFEFF0E06E2FC0
:100BA000679566276795902F9F77D794DD24D79414
:100BB0008E2F8695492F462B582F5D29B701CA01E4
:100BC0001F910F91FF90EF90DF900895FC01DB01E2
:100BD000408151812281622F6F7770E0221F22278E
:100BE000221F9381892F880F822B282F30E0991F95
:100BF0009927991F11969C93119721153105A9F5F5
:100C0000411551056105710511F482E037C082E894
:100C10009FEF13969C938E9312979A01AB0167E016
:100C2000220F331F441F551F6A95D1F783E08C9321
:100C30000DC0220F331F441F551F12968D919C919A
:100C40001397019713969C938E931297203080E010
:100C5000380780E0480780E4580758F314962D932E
:100C60003D934D935C93179708952F3F310579F489
:100C7000411551056105710519F484E08C930895BF
:100C800064FF03C081E08C9312C01C9210C02F57E8
:100C9000304013963C932E93129783E08C9387E019
:100CA000440F551F661F771F8A95D1F770641496FD
:100CB0004D935D936D937C93179708951F93DC017B
:100CC000FB019C91923008F447C08081823008F487
:100CD00043C0943051F411961C91843099F5818170
:100CE000682F70E0611B71093FC0843021F09230A1
:100CF00031F48230B9F18181882389F12DC01196B8
:100D00001C9111978230F1F081811817D9F4129655
:100D10002D913C911397828193818217930794F0D0
:100D200028173907BCF014968D919D910D90BC91B8
:100D3000A02D2481358146815781281739074A071C
:100D40005B0718F4112341F00AC082179307A40728
:100D5000B50740F4112319F061E070E005C06FEFB2
:100D60007FEF02C060E070E0CB011F910895411554
:100D70005105A1F090E0FC01EE0FFF1FEE0FFF1FE9
:100D8000E80FF91FEA56FE4F82819381892B31F4D7
:100D9000718360835383428381E08483089590E06C
:100DA000FC01EE0FFF1FEE0FFF1FE80FF91FEA56C1
:100DB000FE4F1482089590E0FC01EE0FFF1FEE0F2E
:100DC000FF1FE80FF91FEA56FE4F81E08483089564
:100DD00090E0FC01EE0FFF1FEE0FFF1FE80FF91F61
:100DE000EA56FE4F138212820895CF93DF938091CB
:100DF00088019091890101969093890180938801DF
:100E0000C6E9D1E08C81813079F48091880190919C
:100E10008901688179810E941A10892B29F4EA815D
:100E2000FB81309709F00995259681E0C53AD807EE
:100E300049F7DF91CF9108950E94B90789EF0E9489
:100E4000D60785EF96E00E94DD070E9488090E9480
:100E5000C3070895886091B5916091BD81BD0895E3
:100E600081B5816081BD11BC08955D9BFECF8CB9B9
:100E700008955F9BFECF8CB10895599887E689B994
:100E8000529886E080BD539A83E061E041E00E9481
:100E9000EB09549A83E060E040E00E94EB0908957A
:100EA000089809988CE080B986B7806486BF86B7B9
:100EB000846086BF089586B7806286BF86B78068E3
:100EC00086BF06B607FEFDCF089586B7806286BF4F
:100ED00086B7806886BF06B607FEFDCF089586B741
:100EE000806186BF86B7806886BF089587FD0CC085
:100EF000880F83B9189886B78F7D86BF86B78068BC
:100F000086BF06B607FEFDCF089587FD0CC0880F8B
:100F100083B9189A86B78F7D86BF86B7806886BFEB
:100F200006B607FEFDCF089583B986B7806886BFF1
:100F300006B607FEFDCF089586B7806486BF86B7E4
:100F4000806886BF06B607FEFDCF83B10895FC0119
:100F5000662311F484EC06C0613029F484E886BF6E
:100F600086B78F7B86BF06B607FEFDCF83B1808331
:100F7000089583B7886083BF83B78F7B83BF89B7AA
:100F8000826089BF089583B7887F83BF83B78360FA
:100F900083BF089583B78B7F83BF83B78D7F83BF64
:100FA00083B78E7F83BF089582BF08958CBF089555
:100FB00090938B0180938A01089590938D01809383
:100FC0008C0108951F920F920FB60F9211242F9348
:100FD0003F934F935F936F937F938F939F93AF93C1
:100FE000BF93EF93FF93E0918A01F0918B013097CB
:100FF00009F00995FF91EF91BF91AF919F918F916A
:101000007F916F915F914F913F912F910F900FBE04
:101010000F901F9018951F920F920FB60F921124E8
:101020002F933F934F935F936F937F938F939F93F0
:10103000AF93BF93EF93FF93E0918C01F0918D01FB
:10104000309709F00995FF91EF91BF91AF919F9172
:101050008F917F916F915F914F913F912F910F9061
:101060000FBE0F901F9018958FB58E7F8FBD8FB5D7
:1010700082608FBD8EB588608EBD8EB580618EBD5D
:101080000895823051F0833079F0882399F48FB538
:101090008F7B8FBD8FB58F7705C08FB58F7B8FBD51
:1010A0008FB580688FBD08958FB580648FBD8FB573
:1010B00080688FBD0895823051F0833079F08823A5
:1010C00099F48FB58F7E8FBD8FB58F7D05C08FB59D
:1010D0008F7E8FBD8FB580628FBD08958FB5806183
:1010E0008FBD8FB580628FBD08958EB5887F8EBD10
:1010F0008EB582608EBD08958EB58E7F8EBD8EB505
:101100008D7F8EBD8EB58B7F8EBD089590E09DBD89
:101110008CBD089590E09BBD8ABD089590E099BD77
:1011200088BD089590E097BD86BD0895882319F481
:101130008EB580648EBD089589B7806289BF089599
:1011400089B78F7D89BF089589B7846089BF089565
:1011500089B78B7F89BF089589B7806189BF08955A
:1011600089B78F7E89BF089589B7886089BF089540
:1011700089B7877F89BF08959093950180939401E3
:101180000895909393018093920108959093910113
:1011900080939001089590938F0180938E0108951C
:1011A0001F920F920FB60F9211242F933F934F93DC
:1011B0005F936F937F938F939F93AF93BF93EF93BF
:1011C000FF93E0919401F0919501309709F0099512
:1011D000FF91EF91BF91AF919F918F917F916F910F
:1011E0005F914F913F912F910F900FBE0F901F90E5
:1011F00018951F920F920FB60F9211242F933F93C1
:101200004F935F936F937F938F939F93AF93BF930E
:10121000EF93FF93E0919201F0919301309709F0E1
:101220000995FF91EF91BF91AF919F918F917F9120
:101230006F915F914F913F912F910F900FBE0F9043
:101240001F9018951F920F920FB60F9211242F9393
:101250003F934F935F936F937F938F939F93AF933E
:10126000BF93EF93FF93E0919001F091910130973C
:1012700009F00995FF91EF91BF91AF919F918F91E7
:101280007F916F915F914F913F912F910F900FBE82
:101290000F901F9018951F920F920FB60F92112466
:1012A0002F933F934F935F936F937F938F939F936E
:1012B000AF93BF93EF93FF93E0918E01F0918F0175
:1012C000309709F00995FF91EF91BF91AF919F91F0
:1012D0008F917F916F915F914F913F912F910F90DF
:1012E0000FBE0F901F9018956D9A6C9A6B986A9824
:1012F000689A699870986E9A0895FB016115710556
:1013000031F08FB902C08FB18083779BFCCF0895F5
:101310008FB780688FBF08958FB78F778FBF08957D
:10132000813051F1813020F0823009F052C043C049
:10133000613069F0613028F0623079F06330C9F4CF
:1013400012C085B7816085BF85B7826011C085B73F
:10135000826085BF85B78E7F0BC085B78E7F85BFC6
:1013600085B78D7F05C085B78D7F85BF85B78160C7
:1013700085BF8BB780641DC0613051F0613028F0AB
:10138000623049F0633099F40CC085B788600BC0B7
:1013900085B7886002C085B7877F85BF85B78B7F9B
:1013A00005C085B7877F85BF85B7846085BF8BB74C
:1013B00080688BBF0895662319F0613039F403C04B
:1013C00084B7806402C084B78F7B84BF8BB7806290
:1013D0008BBF089508954423C9F1413009F06EC0D0
:1013E000813099F0813030F08230D1F0833009F0D3
:1013F00065C021C02AB381E090E002C0880F991F28
:101400006A95E2F7282B2ABB089527B381E090E084
:1014100002C0880F991F6A95E2F7282B27BB089511
:1014200024B381E090E002C0880F991F6A95E2F72B
:10143000282B24BB089521B381E090E002C0880FDF
:10144000991F6A95E2F7282B21BB0895813099F006
:10145000813028F08230D9F0833081F524C02AB35E
:1014600081E090E002C0880F991F6A95E2F78095AD
:1014700082238ABB089527B381E090E002C0880FE1
:10148000991F6A95E2F78095822387BB089524B35C
:1014900081E090E002C0880F991F6A95E2F780957D
:1014A000822384BB089521B381E090E002C0880FBD
:1014B000991F6A95E2F78095822381BB08954423A2
:1014C000C9F1413009F06EC0813099F0813030F0BF
:1014D0008230D1F0833009F065C021C02BB381E0A8
:1014E00090E002C0880F991F6A95E2F7282B2BBB6A
:1014F000089528B381E090E002C0880F991F6A9593
:10150000E2F7282B28BB089525B381E090E002C0C4
:10151000880F991F6A95E2F7282B25BB089522B3FF
:1015200081E090E002C0880F991F6A95E2F7282BAE
:1015300022BB0895813099F0813028F08230D9F0B3
:10154000833081F524C02BB381E090E002C0880F86
:10155000991F6A95E2F7809582238BBB089528B383
:1015600081E090E002C0880F991F6A95E2F78095AC
:10157000822388BB089525B381E090E002C0880FE4
:10158000991F6A95E2F78095822385BB089522B35F
:1015900081E090E002C0880F991F6A95E2F780957C
:1015A000822382BB0895813091F0813028F082300F
:1015B000C9F0833061F521C02BB381E090E002C017
:1015C000880F991F6A95E2F728272BBB089528B347
:1015D00081E090E002C0880F991F6A95E2F7282702
:1015E00028BB089525B381E090E002C0880F991FC1
:1015F0006A95E2F7282725BB089522B381E090E0A1
:1016000002C0880F991F6A95E2F7282722BB089528
:101610006623B9F0613029F5813051F0813028F02E
:10162000823049F08330E9F409C08FEF8ABB089516
:101630008FEF87BB08958FEF84BB08958FEF81BB39
:101640000895813049F0813028F0823039F08330BC
:1016500041F406C01ABA089517BA089514BA089545
:1016600011BA0895813049F0813028F0823039F084
:10167000833041F406C06BBB089568BB089565BB19
:10168000089562BB0895813051F0813030F082308E
:1016900041F0833079F080E0089589B303C086B3C8
:1016A00001C083B390E002C0959587956A95E2F7F3
:1016B0008170089580B390E002C0959587956A95F2
:1016C000E2F781700895813041F0813018F0833065
:1016D00041F405C03E983F9804C03F9801C03F9A2E
:1016E0003E9A3D98379A623099F0633028F4662329
:1016F00051F06130D9F40AC0643089F0643060F090
:101700006530A1F410C03098319804C0309801C001
:10171000309A319A329808953098319802C03098B2
:10172000319A329A0895309A319A329A089597B13F
:10173000907E97B997B1982B97B9369A349BFECF84
:10174000349A24B135B1C90108950E94970BA0E0E5
:10175000B0E0BC01CD010E94490420E030E040EA45
:1017600050E40E941F0220E030EC4FE754E40E9456
:10177000190320E030E04AE754E40E941F02089574
:101780000E94A50B20E030E048EC52E40E941F02CA
:101790000E944900CB0108950895882319F08130F3
:1017A000F1F51FC080E062E041E00E94EB0980E0BB
:1017B00061E041E00E94EB0980E063E041E00E94CB
:1017C000EB0980E062E040E00E945F0A80E061E0B7
:1017D00040E00E945F0A80E063E040E00E945F0A10
:1017E000089581E065E041E00E94EB0981E064E05A
:1017F00041E00E94EB0981E066E041E00E94EB09D4
:1018000081E065E040E00E945F0A81E064E040E042
:101810000E945F0A81E066E040E00E945F0A08954E
:10182000882321F0813009F07BC039C06623C1F4E0
:1018300080E062E041E00E94EB0980E061E041E08D
:101840000E94EB0980E063E041E00E94EB0980E048
:1018500062E040E00E945F0A80E061E041E01AC07F
:10186000613009F05DC080E062E041E00E94EB0978
:1018700080E061E041E00E94EB0980E063E041E04C
:101880000E94EB0980E062E041E00E945F0A80E094
:1018900061E040E00E945F0A80E063E01DC06623D3
:1018A000F9F481E065E041E00E94EB0981E064E049
:1018B00041E00E94EB0981E066E041E00E94EB0913
:1018C00081E065E040E00E945F0A81E064E041E081
:1018D0000E945F0A81E066E041E00E945F0A08958D
:1018E0006130F1F481E065E041E00E94EB0981E0C4
:1018F00064E041E00E94EB0981E066E041E00E9483
:10190000EB0981E065E041E00E945F0A81E064E06C
:1019100040E00E945F0A81E066E041E00E945F0AC9
:101920000895EF92FF921F93182F81E061E041E04C
:101930000E945F0A81E062E040E00E945F0A412F5E
:10194000441F4427441F80E067E00E945F0A412F44
:10195000429546954695417080E066E00E945F0A98
:10196000412F42954695417080E065E00E945F0AF4
:10197000412F4295417080E064E00E945F0A81E05F
:1019800063E041E00E945F0A80EAE82E8FE0F82ED3
:10199000C7010197F1F781E063E040E00E945F0A30
:1019A000C7010197F1F7412F46954695469541703D
:1019B00080E067E00E945F0A412F4695469541709E
:1019C00080E066E00E945F0A412F4695417080E00A
:1019D00065E00E945F0A117080E064E0412F0E9480
:1019E0005F0A81E063E041E00E945F0AC70101975E
:1019F000F1F781E063E040E00E945F0AC7010197D0
:101A0000F1F71F91FF90EF9008956F927F928F9260
:101A10009F92AF92BF92CF92DF92EF92FF920F937D
:101A20001F937B018C01611571058105910521F4DE
:101A300080E30E94910C5DC097FD03C05B016C01C7
:101A40000AC0AA24BB246501A61AB70AC80AD90A83
:101A50008DE20E94910C91E0692E712C812C912CC9
:101A6000C801B7012AE030E040E050E00E94501089
:101A7000C901DA017C018D01C401B3012AE030E023
:101A800040E050E00E94FB0F3B014C01E114F104E7
:101A90000105110529F70E942E10C901DA013C0148
:101AA0004D0122C0B501C601A40193010E942E1070
:101AB000122FB501C601A40193010E942E10AC01A2
:101AC000CB01DA015C016D01C401B3012AE030E011
:101AD00040E050E00E942E10C901DA013C014D01A6
:101AE000812F805D0E94910C611471048104910426
:101AF000C9F61F910F91FF90EF90DF90CF90BF90AC
:101B0000AF909F908F907F906F900895CF92DF92CB
:101B1000FF920F931F93DF93CF93CDB7DEB72A9732
:101B20000FB6F894DEBF0FBECDBF9C0140E06E0142
:101B30000894C11CD11C11C0F601E40FF11DC901AC
:101B40006AE070E00E941A10805D8083C9016AE03B
:101B500070E00E941A109B014F5F2115310561F75B
:101B6000F42EFA940F2D112707FD10950C0D1D1D55
:101B700007C0F80180810E94910CFA940150104036
:101B8000F7FEF7CF2A960FB6F894DEBF0FBECDBF93
:101B9000CF91DF911F910F91FF90DF90CF9008952B
:101BA0001F93CF93DF93EC0110E003C00E94910CD0
:101BB0001F5FFE01E10FF11D80818823B9F7DF91DE
:101BC000CF911F910895EF92FF921F93182F81E0FC
:101BD00061E040E00E945F0A81E062E040E00E9434
:101BE0005F0A412F441F4427441F80E067E00E94A2
:101BF0005F0A412F429546954695417080E066E028
:101C00000E945F0A412F42954695417080E065E051
:101C10000E945F0A412F4295417080E064E00E947B
:101C20005F0A81E063E041E00E945F0A20EAE22E61
:101C30002FE0F22EC7010197F1F781E063E040E069
:101C40000E945F0AC7010197F1F7412F469546951B
:101C50004695417080E067E00E945F0A412F4695FB
:101C60004695417080E066E00E945F0A412F4695EC
:101C7000417080E065E00E945F0A117080E064E0DE
:101C8000412F0E945F0A81E063E041E00E945F0A09
:101C9000C7010197F1F781E063E040E00E945F0A2D
:101CA000C7010197F1F71F91FF90EF9008958130E0
:101CB00029F4862F80580E94E30D0895823021F484
:101CC000862F80540E94E30D089581E00E94E30D69
:101CD00080E49FE10197F1F708950F931F9380E04F
:101CE00067E041E00E94EB0980E066E041E00E948D
:101CF000EB0980E065E041E00E94EB0980E064E0F0
:101D000041E00E94EB0981E061E041E00E94EB09C3
:101D100081E062E041E00E94EB0981E063E041E0A4
:101D20000E94EB0980E991E020E931E0F901319767
:101D3000F1F70197D9F782E00E94E30D88E20E9453
:101D4000E30D00EA1FE0C8010197F1F78FE00E9460
:101D5000E30DC8010197F1F781E00E94E30D80EEE9
:101D60009EE20197F1F786E00E94E30D1F910F912B
:101D700008957F928F929F92AF92BF92CF92DF92FF
:101D8000EF92FF920F931F93CF93DF9338E6832E4A
:101D900031E0932E2CE6A22E21E0B22E94E5792E8E
:101DA000CC24DD24F4018081F501608140E00E94B3
:101DB0005F0AC0E7D1E004E711E088E7E82E81E0A0
:101DC000F82EEC0CFD1C8881F80160810E94430B09
:101DD000882311F4F70170808881F80160810E94E6
:101DE000430B8823C9F321960F5F1F4F84E090E0D7
:101DF000E80EF91E91E0C437D90729F7F401819163
:101E00004F01F50161915F0141E00E945F0A089472
:101E1000C11CD11CF4E0CF16D10421F6872DDF912F
:101E2000CF911F910F91FF90EF90DF90CF90BF90D7
:101E3000AF909F908F907F90089581E064E041E0A3
:101E40000E94EB0981E065E041E00E94EB0981E03E
:101E500066E041E00E94EB0981E067E041E00E941A
:101E6000EB0982E063E040E00E94EB0982E064E07D
:101E700040E00E94EB0982E065E040E00E94EB094F
:101E800082E066E040E00E94EB0981E064E041E02E
:101E90000E945F0A81E065E041E00E945F0A81E004
:101EA00066E041E00E945F0A81E067E041E00E9455
:101EB0005F0A82E063E041E00E945F0A82E064E042
:101EC00041E00E945F0A82E065E041E00E945F0A13
:101ED00082E066E041E00E945F0A08950F931F933D
:101EE0008C0110650E9450070E945B07812F0E94A1
:101EF0007607802F0E9494070E946507812F0E9419
:101F000085070E949C07182F0E946F07812F1F9141
:101F10000F910895FF920F931F93182F092FF62EFC
:101F20000E9450070E945B07802F80650E94760701
:101F3000812F0E9494078F2D0E9494070E946F07A3
:101F400080E29EE40197F1F71F910F91FF900895B1
:101F500080E060E041E00E94EB0980E061E041E068
:101F60000E94EB0980E062E041E00E94EB0980E022
:101F700063E041E00E945F0A80E068EE73E04EEDAE
:101F80005FE00E94B70681E060EA7FE043EF5FE038
:101F90000E94B70682E060E47FE14BEE5FE00E94C2
:101FA000B70682E00E94E80682E060E47FE143EE4B
:101FB0005FE00E94B7060E941C07FFCF80E060E050
:101FC0000E94D30A089580E062E00E94D30A80E074
:101FD0000E94DB06089580E062E00E94D30A80E060
:101FE0000E94DB06089580E061E00E94D30A80E051
:101FF0000E94CF060895629FD001739FF001829FD7
:10200000E00DF11D649FE00DF11D929FF00D839F87
:10201000F00D749FF00D659FF00D9927729FB00D24
:10202000E11DF91F639FB00DE11DF91FBD01CF0137
:1020300011240895AA1BBB1B51E107C0AA1FBB1F97
:10204000A617B70710F0A61BB70B881F991F5A9544
:10205000A9F780959095BC01CD010895A1E21A2EB3
:10206000AA1BBB1BFD010DC0AA1FBB1FEE1FFF1F3C
:10207000A217B307E407F50720F0A21BB30BE40B8C
:10208000F50B661F771F881F991F1A9469F76095D3
:102090007095809590959B01AC01BD01CF0108958D
:1020A00097FB092E05260ED057FD04D0D7DF0AD0A6
:1020B000001C38F450954095309521953F4F4F4F77
:1020C0005F4F0895F6F790958095709561957F4FD5
:1020D0008F4F9F4F08952F923F924F925F926F9232
:1020E0007F928F929F92AF92BF92CF92DF92EF92A8
:1020F000FF920F931F93CF93DF93CDB7DEB7CA1B29
:10210000DB0B0FB6F894DEBF0FBECDBF09942A8853
:10211000398848885F846E847D848C849B84AA84FB
:10212000B984C884DF80EE80FD800C811B81AA8188
:10213000B981CE0FD11D0FB6F894DEBF0FBECDBF53
:08214000ED010895F894FFCFB2
:102148000000000000000000000102020303030376
:10215800040404040404040405050505050505052F
:10216800050505050505050506060606060606060F
:1021780006060606060606060606060606060606F7
:1021880006060606060606060707070707070707DF
:1021980007070707070707070707070707070707C7
:1021A80007070707070707070707070707070707B7
:1021B80007070707070707070707070707070707A7
:1021C800070707070707070708080808080808088F
:1021D8000808080808080808080808080808080877
:1021E8000808080808080808080808080808080867
:1021F8000808080808080808080808080808080857
:102208000808080808080808080808080808080846
:102218000808080808080808080808080808080836
:102228000808080808080808080808080808080826
:102238000808080808080808080808080808080816
:10224800080808080808080801010101040506072C
:1022580002020202030405063738392F3435362ABC
:082268003132332D63303D2BB0
:00000001FF
